:1000000003308A00D32B0000D02B4D1DA0126610A8
:100010000000D432EE39E9376E1DA012B0182E1947
:10002000662B2000363084008313000803191F2834
:10003000A530F700F70B1A280000800B18280800DD
:100040003D0EF039F7000F300805770488000000F6
:1000500008140000081008000808F700080E0F39FF
:10006000F800080083160810881008118312881001
:100070000F3083160805F038880083120815000039
:10008000081400002C207808BD0008100000081497
:100090002C207808BC0008100F3083160805880053
:1000A00083123D0EF700F030F70577083C04F800A6
:1000B0007808BC00BC1B38283A1C88103A188814F1
:1000C00000000811000008103B0EBC000F30BC05FA
:1000D0003C08BD0020203B080F39BC00BD0020209B
:1000E00008002830A9000C30AA000130AB0006300F
:1000F000AC000810881008110F308316080588001E
:100100000810881008110F308312B6001220013039
:10011000A8002808033C031C95280330BD002020BC
:100120000530B6001220A80A89280230BD00202020
:100130000530B6001220A8012808033C031CAC2897
:1001400029302807840083130008AD00BA012D0868
:10015000BB003220A80A9C288A110A12E02B8E309C
:10016000F7002908F8002808F900FA01F808031D2B
:10017000C3287908F800F9010830F702F808031DD0
:10018000C328F701CB280310F81BCA28F90DF80D76
:10019000F703C328F8138A110A12FF2B3508031935
:1001A0003E29BD00390803193E29BD070318DF2881
:1001B0007F30BD02031C3E2903193E29E32881300C
:1001C000BD0703183E293D08F700F801F901FA01BF
:1001D0003608C100C1173708C0003808BF00183002
:1001E000BD00BE013F1C0C293C08FA07031CFE2879
:1001F000F90A031DFE28F80A0319BE173B08F90780
:10020000031C0529F80A0319BE173A08B700B717E7
:100210003708F8070318BE17BE0DF80CF90CFA0CD6
:10022000C10CC00CBF0C0310BD0BF1280130F70747
:1002300003183E29F81B2329C10DFA0DF90DF80DFD
:10024000F70303193E29C11F3429FA0A031D342973
:10025000F90A031D3429F80A031D3429F80CF90C96
:10026000FA0CF70A03193E293608BE003A08BE0602
:10027000BE1F3C29F8174229F8134229F701F8015B
:10028000F901FA0108002C080319082AB8003008FF
:100290000319082AB802031C52297F30B807031833
:1002A000082A58298130B802031C082A0319082A91
:1002B0003808F700F801F901FA01B7012D08B60076
:1002C000B6172E08B5002F08B4001930B80033084F
:1002D000B40203187B290130B50203187B29B6024A
:1002E00003187B29B70203187B29B70AB60AB50A97
:1002F0003308B407AD293208B50203189629013036
:10030000B60203189629B70203189629B70AB60A47
:100310003208B5073308B407031CAD29B50A031D1D
:10032000AD29B60A031DAD29B70AAD2931088038B9
:10033000B6020318AC290130B7020318AC29B70A7A
:1003400031088038B6073208B507031C8A29B60A77
:10035000031D8A29B70A8A297A14B80BB029BB2948
:100360000310B40DB50DB60DB70D0310FA0DF90D50
:10037000F80DB90D6729391CC3290310F80CF90CC5
:10038000FA0CB90CC629F7030319082AB91BEF297F
:100390000310B40DB50DB60DB70D3308B402031834
:1003A000DB290130B5020318DB29B6020318DB296B
:1003B000B702031CFE293208B5020318E6290130F2
:1003C000B6020318E629B702031CFE29310880385B
:1003D000B6020318EF290130B702031CFE29FA0AFE
:1003E000031DFE29F90A031DFE29F80A031DFE2933
:1003F000F70A0319082AF80CF90CFA0C2D08B800B2
:100400003108B806B81F062AF8170C2AF8130C2A68
:10041000F701F801F901FA018A110A122C2C370BA5
:10042000122A152A4030B800162AB80101303602C7
:10043000B80738088038B900BA013908BB00322043
:1004400008003508073A03192F2A0B3A0319342AF2
:10045000063A03193C2A023A0319422A472A013074
:10046000B600B7000F224C2ABA010130BB0032207F
:100470000230B60012204C2A0130B6000230B7001C
:100480000F224C2ABA011030BB0032204C2A013016
:10049000BA003508BB00322008000B08A9008B13F6
:1004A000831603178C170C1400000000831203132B
:1004B000A91B8B170318842A03170C087F39031311
:1004C000A90003170D080313AA0003170F0803134D
:1004D000AB002908B50021222A0803178D00031359
:1004E0002B0803178F0003130B08AC008B13831624
:1004F00003178C170C140000000083120313AC1BAD
:100500008B17A80B842AA32A03170C0D0E0D7F3915
:100510000313A90003170D080313AA0003170F08FC
:100520000313AB002908B50021222A0803178D0008
:1005300003132B0803178F008D0A03198F0A03106A
:100540000313A80B4D2A08008318A92A3D30840004
:100550008313F701F801F901FA01BD01BE01BF01E2
:10056000C0013C083B043A0439040319E72A20304F
:10057000C1000310B50DB60DB70DB80DBD0DBE0D04
:10058000BF0DC00D3C084002031DD02A3B083F02AE
:10059000031DD02A3A083E02031DD02A39083D0225
:1005A000031CE12A3908BD023A08031C3A0FBE02B7
:1005B0003B08031C3B0FBF023C08031C3C0FC0025E
:1005C0000314F70DF80DF90DFA0DC10BB92A3D080A
:1005D0008000840A3E088000840A3F088000840A64
:1005E0004008800008000408AD002C08AF00031983
:1005F000122B2B08B8002A08B7002908B6002808D3
:10060000B500BC01BB012030BA008230B900CE2059
:100610007A08AB007908AA007808A9007708A80032
:10062000AF0BF92A2B08B8002A08B7002908B60032
:100630002808B5003508B63CB500FA013608B900FF
:10064000B6170310B60CB70CB80CFA0CF90CF80C72
:10065000F70CB50B212BB91F382BF709F809F9094D
:10066000FA09F70A0319F80A0319F90A0319FA0A29
:100670007A08AB007908AA007808A9007708A800D2
:10068000AB1F4F2BAD03AD16A809A909AA09AB09E9
:10069000A80A0319A90A0319AA0A0319AB0A3B30CD
:1006A000B4009A30B300CA30B200B1010A30AF00D2
:1006B0002C080319AD0A83142830840083132B08F7
:1006C000B8002A08B7002908B6002808B500340881
:1006D000BC003308BB003208BA003108B900A422BC
:1006E0007808F708031D872B2C0A2F020319872B84
:1006F0002D080319892B0F392F020319812B031899
:10070000B92BAD1BB92B2D1B892B2030B52B2030DD
:10071000AD05AD1E972BAD122C08031DAD03770858
:10072000AD002D30B50021222D08F700AD012C08B9
:100730002F02031DA52B7708AD002E30B500212216
:100740002D08F7002030AD0500303030AD1EB52B40
:10075000AD122C08031DAD037708AD002D30B50098
:1007600021222D08F700AD013030F7077708B500DA
:10077000212283103408B8003308B7003208B600CD
:100780003108B500BC01BB01BA010A30B900A4228E
:100790007A08B4007908B3007808B2007708B1008D
:1007A000AF0B5B2B080003081F39830083161F144F
:1007B0009F141F159F1107309C008313831271280B
:1007C00083161F109F141F159F151F1383121F17C9
:1007D0009F1783169F1783121F140030F8001F08FD
:1007E000C73978049F001F151F19F42B1E08FA0043
:1007F00083161E088312A8001E08A900AF287A08D5
:10080000A3007908A2007808A1007708A000B80129
:10081000B7012030B6008130B5002308BC002208A3
:10082000BB002108BA002008B900CE207A08AB002E
:100830007908AA007808A9007708A8007A08AF000C
:100840007908AE007808AD007708AC00B301B201BA
:10085000B1018930B00043297A08A7007908A600C1
:100860007808A5007708A4000130B600B7000F2271
:10087000043003178D0000308F0003100530031380
:10088000A8004D22893084002308AB002208AA006A
:100890002108A9002008A8000230AC00F322203073
:1008A000B50021220130B6000230B7000F22093016
:1008B00003178D0000308F00031009300313A800C8
:1008C0004D22C93084002708AB002608AA0025085D
:1008D000A9002408A8000230AC00F3225630B5006D
:0C08E00021222030B5002122ED2B630006
:02400E00713F00
:00000001FF
;PIC16F877A
;CRC=E5A1  CREATED="24-feb.-24 02:29"
